:020000040800F2
:10000000D0120020E5030008ED030008EF0300080C
:10001000F1030008F3030008F503000800000000E6
:10002000000000000000000000000000B502000811
:10003000F9030008000000006D030008D103000868
:10004000FF030008FF030008FF030008FF03000888
:10005000FF030008FF030008FF030008FF03000878
:10006000FF030008FF030008FF030008FF03000868
:10007000FF030008FF030008FF030008FF03000858
:10008000FF030008FF030008FF030008FF03000848
:10009000FF030008FF030008FF030008FF03000838
:1000A000FF030008FF030008FF030008FF03000828
:1000B000FF030008FF030008FF030008FF03000818
:1000C000FF030008FF030008FF030008FF03000808
:1000D000FF030008FF030008FF030008FF030008F8
:1000E000FF030008FF030008FF030008FF030008E8
:1000F000FF030008FF030008FF030008FF030008D8
:10010000FF030008FF030008FF030008FF030008C7
:10011000FF030008FF030008FF030008FF030008B7
:10012000FF030008FF030008FF030008FF030008A7
:10013000FF030008FF030008FF030008FF03000897
:10014000FF030008FF030008FF030008FF03000887
:10015000FF030008FF030008FF030008FF03000877
:10016000FF030008FF030008FF030008FF03000867
:10017000FF030008FF030008FF0300080000000061
:10018000FF030008FF03000800F002F800F03CF84D
:100190000AA090E8000C82448344AAF10107DA45E2
:1001A00001D100F031F8AFF2090EBAE80F0013F0F8
:1001B000010F18BFFB1A43F001031847F01A0000A3
:1001C000101B0000103A24BF78C878C1FAD8520733
:1001D00024BF30C830C144BF04680C6070470000C1
:1001E0000023002400250026103A28BF78C1FBD840
:1001F000520728BF30C148BF0B6070471FB501F0E0
:100200001BFD1FBD10B510BD00F022F91146FFF710
:10021000F5FF0FB400F00CF80FBC00F02DFC00F05F
:1002200005F903B4FFF7EEFF03BC00F00BF9000083
:1002300004B000F037FC0448002100F087FC00F017
:1002400043FC00F0F3F800009C1C000880F30988D0
:100250007047EFF309807047684680F309880448C7
:100260000078C00714BF0220032080F31488704771
:100270005C1C0008DFF818C0EFF305831B0618BFED
:100280006047EFF31483DB0708BF604700DF704768
:100290001F0C0008DFF818C0EFF305831B0618BF1A
:1002A0006047EFF31483DB0708BF604700DF704748
:1002B000FD0D0008EFF30980816911F8021CE1BB14
:1002C00090E80F1010B5E047BDE81040EFF3098C3F
:1002D0008CE80700214B93E80600914208BF704765
:1002E00041B91EF0100F16D11D49086820F0010019
:1002F000086010E01EF0100F06BF2CED108A0120E0
:10030000002081F825002CE9F00FC1F828C00CB4BA
:1003100001F016F90CBC1A60D2F828C0BCE8F00F46
:1003200092F8250000280EBF6FF0020E6FF0120E3B
:10033000BCEC108A8CF30988704710B5094A126822
:10034000914209D8084C54F8214090E80F10A0477A
:10035000EFF3098C8CE80F0010BD00002000002096
:1003600034EF00E09C0400089C04000810B500F085
:10037000ABFFBDE81040154B93E80600914208BF63
:100380007047EFF3098C1EF0100F06BF2CED108A9A
:100390000120002081F825002CE9F00FC1F828C0C9
:1003A0000CB401F0CDF80CBC1A60D2F828C0BCE83F
:1003B000F00F92F8250000280EBF6FF0020E6FF0CC
:1003C000120EBCEC108A8CF30988704720000020C4
:1003D00010B501F07DF9CCE710B500F01FFC01F07D
:1003E00077F9C6E70948804709480047FEE7FEE776
:1003F000FEE7FEE7FEE7FEE7FEE7FEE7FEE7FEE7D5
:1004000004480549054A064B704700003D080008AE
:1004100089010008D00C0020D0120020D00E00204E
:10042000D00E0020004870476C0C002010B5044628
:10043000AFF300802046BDE81040FFF7F2BE7047E2
:100440007047704701491820ABBEFEE72600020046
:100450007546FFF7E7FFAE4605006946534620F0B4
:100460000700854618B020B5FFF7CAFFBDE8204059
:100470004FF000064FF000074FF000084FF0000B60
:1004800021F00701AC46ACE8C009ACE8C009ACE813
:10049000C009ACE8C0098D467047704700000000F5
:1004A000F8B502460B460025002400200021E1E0BB
:1004B000012606FA01F51E6806EA0504AC4273D16E
:1004C0005E68022E02D05E68122E13D1CF0802F1B0
:1004D000200656F827004E07F70E0F26BE40B04301
:1004E0004F07FF0E1E69BE403043CF0802F12006C1
:1004F00046F8270010684F000326BE40B0431E791F
:1005000006F003064F00BE40304310605E68012EC7
:1005100008D05E68022E05D05E68112E02D05E689B
:10052000122E13D190684F000326BE40B0434F00F7
:10053000DE68BE4030439060506801268E40B04374
:100540001E79C6F300168E4030435060D0684F00CD
:100550000326BE40B0434F009E68BE403043D0608B
:100560005E6806F08056B6F1805FA8D100BF002615
:100570000096424E366846F48046404F3E603E4606
:10058000366806F48046009600BF00BF3C4E8F08D8
:1005900056F827008E07370F0F26BE40B043394E5E
:1005A000B24202D1002629E063E0374EB24201D1C7
:1005B000012623E0354EB24201D102261EE0344E20
:1005C000B24201D1032619E0324EB24201D10426D3
:1005D00014E0314EB24201D105260FE02F4EB24257
:1005E00001D106260AE02E4EB24201D1072605E0CF
:1005F0002C4EB24201D1082600E009268F073F0F9A
:10060000BE4030431E4E8F0846F82700264E306805
:10061000A0435E6806F48036B6F5803F00D12043E3
:10062000214E3060361D3068A0435E6806F4003607
:10063000B6F5003F00D120431B4E361D3060361DFD
:100640003068A0435E6806F48016B6F5801F00D1BE
:100650002043154E08363060361D3068A0435E6872
:1006600006F40016B6F5001F00D120430E4E0C36DE
:100670003060491C1029FFF41BAFF8BD443802401C
:100680000838014000000240000402400008024017
:10069000000C02400010024000140240001802400A
:1006A000001C024000200240003C014042694A40D8
:1006B0004261704710B50D48006840F400700B4966
:1006C00008600846006840F48060086008460068DA
:1006D00040F480700860032000F05EF80F2000F006
:1006E00007F800F019F8002010BD0000003C02409F
:1006F00070B50446074800684FF47A71B0FBF1F515
:10070000284600F05DF800222146501E00F005F852
:10071000002070BD1400002070472DE9F05F804676
:100720000D461646002700F0BBF8074639462A4614
:10073000334601F00700C0F1070ABAF1040F02D9ED
:100740004FF0040A01E0C0F1070AD14600F1040AA3
:10075000BAF1070F02D24FF0000A01E0A0F1030A3C
:10076000D4464FF0010A0AFA09FAAAF1010A0AEA84
:10077000020A0AFA0CFA4FF0010B0BFA0CFBABF170
:10078000010B0BEA030B4AEA0B042146404600F03A
:100790008FF8BDE8F09F000000BF00F00702064B95
:1007A00019684FF6FF031940044B0B4343EA02213B
:1007B000014B196000BF70470CED00E00000FA0526
:1007C00070B504462546681EB0F1807F01D3012034
:1007D0000FE0681E4FF0E02148610F214FF0FF301D
:1007E00000F066F800204FF0E021886107200861E2
:1007F000002070BD00B587B000BF002001900D48FB
:10080000006840F008000B4908600846006800F0E6
:100810000800019000BF00BF4FF47040029001201B
:10082000039000200490059002A90348FFF738FECA
:1008300007B000BD30380240000C02401448006888
:1008400040F47000124908601248006840F001004E
:100850001049086000200F49083108600D48006801
:100860000D4908400B4908600C48091D0860081F25
:10087000006820F48020091F0860002005490C3121
:1008800008604FF00060024980390860704700003E
:1008900088ED00E000380240FFFFF6FE1030002433
:1008A00002480068C0F30220704700000CED00E031
:1008B00010B5002804DB0A07130E054A135406E09E
:1008C0000A07140E034A00F00F031B1FD45410BD77
:1008D00000E400E018ED00E010B5002A06DA22F08E
:1008E0000042D21D22F00703102203E0D21C22F0A6
:1008F00003030C2213B19C188C4201D9012010BDB6
:10090000024401448360C0E90021C91AD01888421A
:1009100002D810600246F9E70020106010BD000008
:1009200005490978002905D000684FF6FF71DFF806
:100930000CC000DF704700001900002061120008A1
:1009400004490978002903D00068DFF80CC000DFF3
:10095000704700001900002089110008084800684D
:10096000C0010BD507480068C00707D0054880388C
:100970000068002802DA044901200870704700006E
:10098000FCED00E0800E00E03C0000204FF06042F3
:10099000D36F002BFCD0036BD367D36F002BFCD03D
:1009A000C07840EA0120A2F87C0070474FF0604117
:1009B000CA6F002AFCD081F87C0070470EB58022F7
:1009C00000B109B110460AE001780129FAD101A964
:1009D00000F020F8042801D0002000E01020DDE91C
:1009E000011203B000BD70B50D46040003D012B96A
:1009F0002078012801D0802070BD204600F0BEFA8A
:100A000028B12946204600F030F8002070BD812032
:100A100070BD000010B504468089002824D060898C
:100A200004EB800000690860606840B160780228CB
:100A300005D10021204600F095FC00F083FC04F174
:100A40000C0000BFD0E85F1F491E8AB2C0E8512FDA
:100A50000029F7D16089401C80B26081E189884219
:100A600001D100206081042010BD10B500F07AFC97
:100A7000BDE8104000F066BCFFF71CFEFFF7BAFEB1
:100A80000AE04FF470410548FFF710FE002400E033
:100A9000641C03488442FBD3F3E70000000C0240CF
:100AA00000093D00EFF3058008B182207047EFF3A5
:100AB0001480C00703D0DFF80CC000DF704700F0DF
:100AC00093BF0000E919000888B0EFF3058010B16A
:100AD000822008B07047EFF3148010F00301134830
:100AE00006D001291BD0022911D0032919D113E006
:100AF00008A981F309880078C0070BD05FF00200D5
:100B000080F31488BFF34F8FBFF36F8F09E0007835
:100B1000C00706D10320F3E70078C00701D0FF200B
:100B2000D7E7DFF80CC000DFD3E700005C1C00084B
:100B3000591A0008EFF305820AB1FFF73FBFDFF84B
:100B400008C000DF70470000C51A0008EFF30582F7
:100B50000AB100207047EFF31482064B02F0010245
:100B60005B781A4303D0DFF810C000DF704700F055
:100B7000C7BF000018000020011B0008DFF80CC0F0
:100B800000DFDFF80CC000DFFEE70000711B00088B
:100B90008D1B0008DFF804C000DF7047C51B00088C
:100BA000094C4FF0FF3529462068FFF7C3FF024686
:100BB0000846102AF7D1FFF7EDFF0028F3D00246D0
:100BC00008469047EFE7000004000020012806D007
:100BD000022805D0032804D0042804D102E003E051
:100BE00002E001E000E000BF00BF00BFFEE700BF81
:100BF000FEE70000074801684FF0E0204161002156
:100C00008161072101610448016841F07F41016071
:100C100040177047581C000820ED00E0704750E86E
:100C2000001F31B10B6840E80032002AF7D10846B6
:100C30007047BFF32F8FFAE710B568B161B10B3180
:100C400021F00302016844680B1A1B1B934205D272
:100C5000084609680029F5D1002010BD210007D001
:100C600021180368C1E90032016001F1080010BDDC
:100C70004260083010BD000070B50D46002812D04B
:100C80004FF6FF71084C884204D222680146104694
:100C900000F096FB20684570044800F0D9F8BDE8E4
:100CA000704000F05FBC70BD200000203C0C0020B4
:100CB0000F4810B50D4942680E480B680068934212
:100CC00004D00A60CB88421E1A448A808A8880B287
:100CD00082420AD100200860054800F0B9F80146B8
:100CE000BDE81040024800F08FBB10BD340000206A
:100CF0003C0C00203000002070B5194DE868002839
:100D00002CD0A88A401EA882002621E0A06838B115
:100D100061684160606810B1A16881606660A6602A
:100D20000F482146183800F06FFBA08AA88260782F
:100D3000042804D10B49E08A09880844A0820120D4
:100D40006070E068E860E06808B10561E66026610F
:100D5000A88A002802D1EC68002CD7D170BD000011
:100D6000540C00203000002070B504000FD00D4D51
:100D7000A17801262868827891420CD900F060FBA6
:100D8000286846702046BDE8704000F0EBBB06487E
:100D900000F05EF8F7E766702146BDE87040024853
:100DA00000F032BB200000203C0C002010B50446AF
:100DB000008B084320836278618B062A18D0052AAD
:100DC00019D1084217D001EA0002628388432083C8
:100DD000204600F06FFB01206070628B08212046E6
:100DE00000F060FB2146BDE81040034800F00CBB5A
:100DF00031EA0002EAD010BD3C0C0020814202D34F
:100E000042688A4201D80120704702680A60BFF335
:100E10005F8F50E8003F0A689A42F6D140E800121E
:100E2000002AF2D10020704768B161B10022083970
:100E300002E00246006830B18842FAD12AB1006867
:100E40001060002070470120704700214160F8E7E2
:100E50000146406842684A600B780022022B05D0A8
:100E6000012B03D0032B01D04260704743680BB1C4
:100E70009960426082607047810700D0002070470F
:100E800070B5044600201546207001226270A170E2
:100E900084F824106060A060E06020612062A0827D
:100EA000E0822083608384F82500E08C18B905482F
:100EB000FFF7B5FEE06229462046BDE8704000F02D
:100EC0001DB80000B801002008B1082901D2012096
:100ED00070470144091F002201600A604260104609
:100EE0007047000003480021016003490988C18060
:100EF00070470000340000204C1C000870B5C28C04
:100F00001C4D930802D12A88C2F38D03C26A02EBFA
:100F10008302540700D5121F4FF0807442E9021477
:100F200000242646B2F1400242F82460641C0E2CD4
:100F3000FAD3C4691462826201632968C90014D5B6
:100F4000112B12D94FF0FF31103B11EB53014FF031
:100F5000CC3305D042F8043C42F8083D491EF9D193
:100F6000C16A121F8A4200D91360C06A0249016037
:100F700070BD0000481C0008A52E5AE2C189808976
:100F8000081A70470122027000224270827042608B
:100F900002814281103982818908C1817047000035
:100FA0002DE9F041044640680E464FF0000804F178
:100FB0000C05E8B36078012701283ED0022813D041
:100FC00003285CD10846FFF72AFE050057D02046CB
:100FD000FFF73EFF0446294600F05EFA67702046A0
:100FE00000F068FA214621E02046FFF731FF06466F
:100FF000002100F051FA2189F06904EB81010861B8
:10100000D5E85F0F401C81B2C5E8501F0028F7D11A
:101010002089401C80B22081E189884201D1A4F856
:1010200008807770304600F045FA3146174800E0F6
:101030000CE0BDE8F04100F0E7B92046FFF708FFFB
:1010400004463246102100F02DFAC7E7A089E18955
:10105000884216D2208904EB80000661D5E85F0F34
:10106000401C81B2C5E8501F0028F7D12089401CE0
:1010700080B22081E189884201D1A4F80880BDE8CE
:10108000F081BDE8F0410320FFF7A0BD3C0C00203B
:1010900070B50446808915460026C0B3608904EB0C
:1010A0008000006908606089401C80B26081E1892D
:1010B000884200D16681606810B1607802280BD048
:1010C00014F10C04D4E85F0F401E81B2C4E8501F35
:1010D0000028F7D1002070BD2046FFF7B9FE054675
:1010E000002100F0D9F92189E86904EB8101086148
:1010F0002089401C80B22081E189884200D126816C
:10110000284600F0D7F92846FFF72EFEE2E7FFE772
:101110003DB10B48626801682AB1204600F074F9BD
:1011200008E0012070BD616001684E600068846065
:101130000120607008212846FFF79EFDF1E70000BE
:1011400020000020002814D0411C13D00C4A4FF678
:10115000FE7190420CD800EB4002C2EBC01209486D
:10116000036803EBC202521EB2FBF3F0884204D9BB
:10117000084670474FF6FF70704780B27047000016
:1011800000093D00681C00082DE9F0410446408834
:1011900020B1314DA1682A68914202D0FF20BDE8FC
:1011A000F081401E0004000C608053D12968086A59
:1011B000A04209D1E068086208E0C268A24202D1F8
:1011C000E268C26002E010460028F6D191F82400DF
:1011D0000A6A06E053681BB19B78834200D918461F
:1011E000D268002AF6D18870DFF870806168012625
:1011F00011B32046FFF72CFE0746002100F04CF902
:10120000384600F057F96680A760386AE0603C62B3
:101210002968D8F804008A788078824201D3384659
:1012200016E00E4800F0F0F839460C4800F0ECF8F3
:10123000286846707E700AE0D8F804108A78296819
:10124000824207D9054800F0DFF828684670002080
:10125000FFF78AFD0020A2E7200000203C0C0020C0
:1012600070B5184D0E4604464188286839B1A1680A
:10127000814209D16088401C6080002070BDA06060
:10128000016AE1600462F5E776B18A78807882428B
:1012900003D28870A06800F0DDF8606830B12046A5
:1012A000296800F0B1F808E0012070BD286860608E
:1012B0002968002048602868846009213046FFF7CB
:1012C000DBFCF1E72000002070B51B48012102681B
:1012D0005170006800F0B4F8184D6C7818E000BF49
:1012E00005EBC40148680278EAB1012A20D000F079
:1012F0000DF9E878641C844200D100240F48801C5A
:10130000D0E84F1F491EC9B2C0E8421F002AF7D1DA
:10131000A8780028E4D16C700948FFF799FDBDE872
:10132000704000F01FB9098989B2FFF73FFDE0E77F
:101330008968FFF735FEDCE7200000202808002040
:101340003C0C00200548017811B101214170704723
:1013500003494FF0805008607047000028000020CB
:1013600004ED00E0F0B4154DAB1CEE784FEA050734
:10137000D3E84F2FB24202D1BFF32F8F11E0521C9E
:10138000D4B2C3E8424F002AF2D100BFD7E84F2FB2
:10139000541CB44200D10024E4B2C7E8434F002BF0
:1013A000F4D1EB78934205D905EBC202C2E9010101
:1013B000F0BC7047F0BC0220FFF708BC28080020F2
:1013C000104A10B5D368ABB113469B8A03E08CB1C9
:1013D0002246A48A2344D4688B42F8D3C460D060E8
:1013E0000261C46804B12061591A8182908A401A4E
:1013F000908210BD0024C460D060C91A026191823D
:10140000848210BD540C002030B502780023022ADB
:1014100003D0012A01D0032A00D101238C7800E0F7
:101420001046426812B19578A542F9D24A604160EF
:101430001BB102B19160886030BD0020FBE7000065
:1014400003494A6842600022826048607047000099
:101450003C0C002010B5836804462BB96078012845
:101460000ED1084B03E09B6818780028FBD020467B
:1014700000F034F82146BDE810401846FFF7C4BF1D
:1014800010BD00003C0C002090F82510806A09B1C6
:10149000603070472030704710B50C46FFF7F4FFFE
:1014A000046010BD70B515460C46FFF7EDFFC0E9AE
:1014B000004570BD10B5016900290ED0C268CA6030
:1014C000C36800223BB18B8A848A23448B82C36821
:1014D0001961C26000E08A82026110BD816839B181
:1014E00042684A604168002901D08068886070477E
:1014F000054906E04A68824202D140684860704768
:1015000011460029F6D170473C0C002010B5416807
:1015100081B1FFF79DFC0446FFF7CCFF012060700E
:1015200001462046FFF7B8FF2146BDE810400348BA
:10153000FFF76ABF4188491C418010BD3C0C002068
:1015400006480068D0E90A10814203D300680449C4
:10155000884202D00120FFF739BB704720000020ED
:10156000A52E5AE20749022248604270064A1278C4
:10157000002A05D006C98A4202D0C078FFF716BA01
:1015800070470000200000203C00002070B5FFF7ED
:10159000E5F900200446204A204902E042F82040B4
:1015A000401C0B889842F9D31D48342201881D48FD
:1015B000FFF792F91C48008880B240F000421B48B7
:1015C00001681B48FFF788F91A48082201881A4861
:1015D0000068FFF781F9194DFF20194AE870EC8483
:1015E00000212846FFF74CFC164804210170446096
:1015F00015480170C460046184821448154905606F
:10160000022068701248047044700978C170BDE807
:101610007040FFF767BC0000AC080020441C0008C5
:10162000701C000840000020481C0008741C0008C2
:10163000B8010020981C00080C000020080C0020B5
:10164000EF0B00083C0C0020540C00202000002070
:10165000280800207C1C00081B4810B5016841F4D4
:101660007F01016000684FF07F4101EA00201649C8
:10167000C0431439B0FA80F00968C0F10800C1F322
:101680000221814200D3481C0F49091F0B686FF0EB
:101690008072824063F317020A60FFF7ABFA0B49CE
:1016A000002808600EDB00F1E021FF2281F8002411
:1016B00000F01F02012191404009800000F1E0206C
:1016C000C0F8001110BD000020ED00E02C0000204B
:1016D0000C4810B50268012151700068FFF7B0FE98
:1016E000FFF7E6FA08480168491C0160FFF704FBB0
:1016F00000F074FA0548FFF7ABFBBDE81040FFF7B8
:1017000031BF000020000020300000203C0C0020F1
:10171000002805D0810702D10178002900D00020DF
:101720007047000030B50B4C0023626805E09568F7
:101730008D4204D813461268491B002AF7D1026073
:10174000816012B19568691A91600BB1186030BD63
:10175000606030BD180000202DE9F0411E4617469C
:1017600080460D4611F0FF0F00D14D1C1848FFF7C1
:1017700056FA041E16D0280AE762E084E9B242460F
:101780002046E661FFF77CFB01251248124905E07F
:1017900000EB850252F8042C32B16D1C0A88954288
:1017A000F6D90020BDE8F081002DFAD000EB8500CD
:1017B00040F8044C0948E570007818B10121204632
:1017C000FFF7E4F82046FFF7CFFA2846EAE70000E3
:1017D00040000020AC080020441C00083C00002011
:1017E0002DE9F05F584DDFF85891DFF858812968EE
:1017F0004FF0010A002618B1CA78AB46824243D1A5
:101800004E70FEF726FD29688862FFF799FE28686A
:10181000046A1FE06068C0B12046FFF719FB074665
:101820000021FFF739FE3846FFF744FE87F801A094
:1018300039464648FFF7E8FDE168A4F802A0A76032
:10184000386AE0603C620C4604E0E0686680A660AE
:10185000E6600446002CDDD12868C27808EB8201DE
:1018600041F8046CC16A3A48FFF7C8FA2868C662B2
:1018700099F8001011B10021FFF788F83548296860
:10188000FFF7BCFA2E6056E03349098888420CD82D
:1018900008EB800858F8045C3DB12846FFF71EFEAF
:1018A0002846FFF707FE2C6A22E0FF20BDE8F09FE4
:1018B0006068C0B12046FFF7CBFA07460021FFF76A
:1018C000EBFD3846FFF7F6FD87F801A039461F48C3
:1018D000FFF79AFDE168A4F802A0A760386AE0600B
:1018E0003C620C4604E0E0686680A660E660044660
:1018F000002CDDD148F8046C1548E96AFFF77EFA40
:10190000EE6299F8000018B100212846FFF73EF872
:1019100029461048FFF772FA0C48DBF800104068BF
:101920008B7882789A4209D981F801A00748DBF8C0
:101930000010FFF769FD0020FFF716FA0020B5E759
:101940003C000020AC080020200000203C0C0020BF
:10195000B801002040000020441C000870B51A4D5A
:1019600080B11A4A128890421FD8194A02EB8000AF
:1019700050F8044CCCB1A17084F824102868A0421F
:1019800005D014E028688170286880F82410114878
:1019900040688078884215D90E482968FFF734FDE1
:1019A00029680120487000200AE0FF2070BD204611
:1019B000FFF750FD6078012804D10648FFF748FA88
:1019C000FFF7D2F9002070BD20000020441C000861
:1019D000AC0800203C0C002002480068002800D021
:1019E000C07870472000002010B5134C207860B9F3
:1019F0001248400705D1124801681048FFF764FA01
:101A000008B1852010BDFFF7C1FD0E49FF20096810
:101A10008870207858B900210B4800F041F80B4934
:101A2000086000210A4800F06BF80A4908600120AC
:101A300020700020607010BD180000207806002083
:101A4000781C000820000020901C000804000020E2
:101A5000801C00080000002070B50F4D687808B1A8
:101A6000002070BD0D4C206890F824100020FFF776
:101A700075FF2068C178FF2903D1816A203181F385
:101A80000988616811B9606000202060FFF7E4FDFB
:101A900001206870E4E7000018000020200000200A
:101AA00010B5040005D0216819B1606808B102784A
:101AB0000AB1002010BD8900103189B2FFF762FA27
:101AC000606810BD3EB504000D464FF0800012D096
:101AD000217801290FD12846FFF734FB0246204622
:101AE00001A9FFF7D5FA012801D0102003E00DB1BC
:101AF000402000E00020DDE9011203B030BD00000D
:101B000070B50E4604002BD0206848B3B4F9040029
:101B100010F1030F24DB032822DCE16829B111480E
:101B2000FFF78AF805001BD000E00025B4F9040097
:101B3000E168001D40EA012133462A462068FFF78C
:101B40000BFE40B1084901EB8000084950F8040C35
:101B5000826A516370BD1DB129460248FFF764F9DE
:101B6000002070BD78060020AC0800207D0B000826
:101B700010B5FFF731FF002804D0034901EB8000C6
:101B800050F8040C10BD0000AC08002010B5FFF7A1
:101B9000BFFD18B1C18C19B1C46A02E0802010BD2C
:101BA0000024C078FFF71CFEFF2806D01CB1214698
:101BB0000348FFF739F9002010BD812010BD000057
:101BC0007806002010B5FFF757F920B141690A687F
:101BD0000169104610BD0020014610BD2DE9F041FD
:101BE000134E7468002C1CD0A068124F401E4FF09A
:101BF0000108A06012E0254624687460002229468E
:101C00003868FEF7F0FE10B10420FEF7DFFF6879B8
:101C1000012808D085F80480002C02D0A068002894
:101C2000E9D0BDE8F0812846E968FFF77BFDF3E7DE
:101C300018000020040000204FF04070E1EE100A70
:101C40007047000007000000C80002010500010005
:101C5000001BB7000C000000DF2E00000100000098
:101C60000200010051000400E80300000000000031
:101C700078010000C0040000B00100001000000066
:101C8000A10B00080200000001000000C8000000D5
:101C900004000000C808002000000000790A0008C5
:101CA0000000000001000000C8000000CC1C00087B
:101CB0000000002040000000C40100080C1D0008C6
:101CC0004000002090120000E00100080000000029
:101CD0000000000000000000000000000000000004
:101CE0000024F400000000000000000000000000DC
:101CF00000000000000000000000000000000000E4
:0C1D0000000000000000000000000000D7
:04000005080003E507
:00000001FF
